:020000040040BA
:1000000010314020390C4000350C4000350C4000C8
:10001000350C4000350C4000350C4000000000005D
:10002000000000000000000000000000350C40004F
:10003000350C400000000000350C4000350C40003D
:10004000350C4000350C4000350C4000350C4000AC
:10005000350C4000350C4000350C4000350C40009C
:10006000350C4000000000005D0A4000710A4000AD
:10007000850A4000350C4000350C4000350C40002E
:10008000990A4000AD0A4000350C4000350C400094
:10009000350C4000350C4000350C4000350C40005C
:1000A000350C4000350C4000350C4000350C40004C
:1000B000350C4000350C4000350C4000350C40003C
:1000C000350C4000350C4000350C4000350C40002C
:1000D00000000000350C400000000000350C40001E
:1000E000350C4000350C4000350C4000350C40000C
:1000F000350C4000350C4000350C4000350C4000FC
:10010000350C4000350C4000350C4000350C4000EB
:10011000350C40000000000000000000000000005E
:10012000350C4000350C4000350C4000350C4000CB
:10013000350C400000000000350C4000350C40003C
:1001400010B5054C237833B9044B13B10448AFF311
:1001500000800123237010BD4C0E402000000000E1
:10016000D02040000C4B43B10C480D4910B5AFF303
:1001700000800C48036823B910BD0A48036833B9EE
:100180007047094B002BF7D0BDE810401847064BCD
:10019000002BF5D0184700BF00000000D020400021
:1001A000500E4020D02040000000000008B5074B52
:1001B000984203D0064B984204D008BD1520054B49
:1001C000984708BD2A20034B9847F6E70080004077
:1001D00000800540E10B4000436823F47023436036
:1001E0004368090401F4702119434160704730B439
:1001F00043F69924056915F0020F03D1013CF9D1AA
:1002000001200CE0446814F0020F06D0120402F43E
:10021000702211430BB141F08071C160002030BCED
:10022000704732B900EB8100036B23F001030363D5
:10023000704700EB8100036B43F0010303637047D9
:1002400032B900EB8100036B23F0020303637047B4
:1002500000EB8100036B43F0020303637047042A41
:1002600003D06AB1082A16D0704700EB8100036BF7
:1002700023F008030363036B43F004030363704735
:1002800000EB8100036B23F008030363036B23F08F
:1002900004030363704700EB8100036B43F0080322
:1002A0000363E1E700EB81010B6B23F0F0030B63C9
:1002B0000B6B1A430A637047431E1944B1FBF0F0FD
:1002C000431EFE2B94BF00B24FF0FF3070477AB14F
:1002D00010B4144600EB81010B6B23F47F430B63D6
:1002E0000A6B42EA04220A6300205DF8044B70475F
:1002F0004FF0FF3070470000014B1860704700BF9F
:10030000680E4020024B1B6803EBC010425470473C
:10031000680E4020024B1B6803EBC010405C704726
:10032000680E402070B504460D4616461BB90D4BAD
:100330009847B04215D03246294620460A4B984786
:1003400004F00F0040F0B000084CA047C5F30210C5
:1003500040F01000A04705F00F00A0473046044BC6
:10036000984770BD1503400005034000C5034000D9
:10037000E50540002DE9F0410D480E4B98470E4B26
:10038000984740200D4B984700254FF001082F4615
:100390000B4E002443463A46E1B22846B0470134AA
:1003A000802CF7D10135EDB2042DF2D1BDE8F081FA
:1003B0006C0E4020F902400005044000C5034000D7
:1003C0002503400038B505460822094B5A63094CFD
:1003D00001212046084B984701231A46294620460A
:1003E000064CA0474FF4FD70054B984738BD00BF41
:1003F00000100E4000800040D9014000EF01400095
:10040000010040202DE9F843664D4FF400362E617F
:10041000C5F8A060644B08271F61C3F8A0706E6622
:10042000C5F890606E656E62C5F880602A6F22F430
:1004300000322A676A6F22F400326A675F66C3F887
:1004400090705F655F62C3F880701A6F22F00802D7
:100450001A675A6F22F008025A671F602E601F63E6
:100460002E63DFF87C8100234FF480024FF080512F
:1004700040464E4CA04700234FF400124FF08051ED
:100480004046A04700234FF000724FF08051404695
:10049000A04700234FF480024FF080514046A04710
:1004A00000234FF400124FF080514046A047002334
:1004B0004FF000724FF080514046A0473C4C4FF047
:1004C0000209C4F800904FF08008C4F80080636807
:1004D00043F0010363603A4601212046354B9847BB
:1004E000002201212046344B98470022012120465A
:1004F000324B9847636823F00203636000220121B6
:1005000020462F4B9847636823F08003636063683D
:1005100043F0100363602B492B482C4B9847C2B221
:10052000012120462A4B984720462A4B9847012311
:1005300023606E6340F6B830274CA0472E6340F628
:10054000B830A0472E63A820244CA0471F20A04706
:10055000D320A0470020A0474020A047A120A047CB
:10056000C820A047DA20A0474846A0478120A047DE
:100570008F20A047A420A047A620A047D520A047B1
:100580004046A0478D20A0471420A047DB20A0476D
:100590004020A047D920A047F120A047AF20A04786
:1005A000BDE8F88300120E4000100E40CD08400058
:1005B000008000405F0240002302400041024000F2
:1005C000A502400080D1F00840420F00B90240006F
:1005D000CF024000AD01400001004020C5034000B3
:1005E00000140E4038B505460822094B1A63094C21
:1005F00001212046084B984701231A4629462046E8
:10060000064CA0474FF4FD70054B984738BD00BF1E
:1006100000100E4000800040D9014000EF01400072
:100620000100402010B51048104B98473E21002093
:100630000F4B98470F4CA0470028FCD00E4B984713
:100640000E4A0F4B9A620F4CA0470028FCD00220A4
:100650000D4B984700200D4B98470D4B984702488B
:10066000024B984710BD00BF00A3E1110D0E4000E2
:100670005D0B4000B10B4000C10B4000013F182052
:1006800000060E40D10B4000C10A4000F90A4000AC
:10069000010D4000F8B54FF40042484B5A60BFF3DB
:1006A0004F8FBFF36F8F464B0022C3F850225A6919
:1006B00042F400325A61BFF34F8FBFF36F8FD3F80C
:1006C0008070C7F34E3607F007000430C7F3C90740
:1006D000B7FA87FE0EF01F0EBFF34F8F4FF0FF34B7
:1006E00004FA00FC06FA00F004FA0EF407FA0EFE13
:1006F0001D463A46734640EA0301C5F86012013AC6
:100700002344B2F1FF3FF6D1013E6044B6F1FF3F12
:10071000EFD1BFF34F8F2A4B5A6942F480325A61AE
:10072000BFF34F8FBFF36F8F264A27495160A1F562
:1007300080715160BFF34F8FBFF36F8FD3F890225A
:1007400022F00102C3F89022D3F8942222F0010291
:10075000C3F89422BFF34F8FBFF36F8F0A201B4C57
:10076000A0470B20A0470C20A0471020A047112035
:10077000A047174B4FF480721A61C3F8A0201A6388
:10078000A3F580634FF400625A61C3F8A0205A6653
:10079000C3F890205A651A62C3F88420196F21F4B7
:1007A00000611967596F21F400615967C3F8C020CF
:1007B000C3F8D420C3F8B020F8BD00BF50180E40D5
:1007C00000ED00E0000C0E400C08005AE10B400068
:1007D00000120E4001637047416370474264B1F1FB
:1007E000C05F3AD013D8B1F1006F25D0B1F1805F6E
:1007F0000AD1036F13430367436F416F0B4023EA32
:1008000002034367426070470029FBD17047B1F192
:10081000205F21D009D8B1F1005FF3D1036F1343FA
:100820000367436F13434367ECE7B1F1405F13D0B5
:10083000B1F1605F10D0E5E710B4016F046FD343EE
:1008400021401C4619400167436F416F0B40234014
:10085000436742605DF8044B7047036F016F0B40C4
:1008600023EA02030367436F13434367CAE7416404
:1008700012F0010F0DD1016612F00A0F0BD00162C8
:1008800012F0020F09D112F0080F08D0C0F884103E
:1008900005E04166F0E74162F2E7C0F8801041618F
:1008A0000160704710B4019C41644CB901664BB1C2
:1008B00001654AB94163016101605DF8044B70470D
:1008C0004166F4E74165F4E70163F4E770B582B08F
:1008D000054616461C46B1F1005F14D00AD9B1F1A5
:1008E000405F24D0B1F1605F21D0B1F1205F17D01B
:1008F00000201AE0B1F1805F05D0B1F1C05F02D0F5
:10090000B1F1006FF4D132462846114B984714F0EC
:10091000010F02D12E66012007E06E66012004E07F
:100920001A4631460B4B9847012002B070BD04F0C7
:1009300001030093C4F38003B1F1605F14BF002290
:10094000012231462846044CA0470120EDE700BFB4
:10095000DD0740006F084000A508400012F0100FAE
:1009600012D0C0F8B01012F0200F07D0C0F8D41089
:1009700012F0400F05D0C0F8C0107047C0F8D0107A
:10098000F6E7C0F8C4107047C0F8B41070470164AF
:100990007047C06C7047806C704700002DE9F041D3
:1009A000044688460E4B9847054620460D4B98470F
:1009B000054013D00C4C04F1600603E0B4420DD0A6
:1009C00010345DB120684045F8D161682942F5D006
:1009D000E3689847636825EA0305EFE7BDE8F0811F
:1009E00093094000970940006C104020F8B5184C5E
:1009F0002668062E2AD84FF0000C6446154F04E0F6
:100A00000134E4B2A446A64209D3A64625017D5985
:100A10008D42F5D107EB04156D689542F0D10D4D6F
:100A20004FEA0E1E05EB0E0445F80E106260A3603F
:100A30000699E1600136664505D011461A46064B17
:100A400098470020F8BD02490E60F6E70120F8BD86
:100A5000DC1040206C1040205D09400008B50A21E0
:100A60000148024B984708BD000E0E409D0940000A
:100A700008B50B210148024B984708BD00100E40F5
:100A80009D09400008B50C210148024B984708BD5C
:100A900000120E409D09400008B510210148024B8C
:100AA000984708BD00140E409D09400008B511216B
:100AB0000148024B984708BD00160E409D094000B2
:100AC000032811D0042812D002280CBF4FF48071E3
:100AD0000021084A136B23F440730B431363936E96
:100AE00013F0080FFBD070474FF44071F1E74FF45B
:100AF0000071EEE700060E40174A136B23F07003F7
:100B000018431063936E13F0080F0AD14FF480530B
:100B100011498A6E12F0080F03D1013BF9D101206F
:100B200070470D4A136B23F0030343F00203136372
:100B3000936E13F0080F0AD14FF4805306498A6E62
:100B400012F0080F05D1013BF9D1012070470020B8
:100B500070470020704700BF00060E40A0B90E4845
:100B6000036A090289B20D4A1A400D4B1343194317
:100B700001620246936E13F0010FFBD0064A116A20
:100B8000084B0B431362704703490B6A064A1A402D
:100B9000064B13430B62704700060E40FCFFC8FF74
:100BA0000100370000003701FCFFC8FE02003701DA
:100BB000024B986E00F48030704700BF00060E4074
:100BC0004FF00052014B9A62704700BF00060E4082
:100BD000024B986E00F00200704700BF00060E4006
:100BE0003F281ED81F280CD8114B9A690123834037
:100BF000934318D0012303FA00F00D4B1861002035
:100C0000704720380A4BD3F80821012383409343CF
:100C10000BD0012303FA00F0054BC3F800010020BC
:100C2000704701207047002070470020704700BFC8
:100C300000060E40FEE7000000B583B0254B264AB3
:100C40009A4210D0254B234A9A420CD2013B9B1A60
:100C500023F00303043313441F4951F8040B42F8F3
:100C6000040B9A42F9D11E4B1E4A9A420AD2013B0A
:100C70009B1A23F0030304331344002142F8041B9E
:100C80009342FBD1184A194B23F07F039360EFF393
:100C90001083B3FA83F35B09019372B6BFF35F8FDE
:100CA0000022134B1A700199124A136843F470031F
:100CB0001360BFF34F8FBFF36F8F29B101220C4B2D
:100CC0001A70BFF35F8F62B60B4B98470B4B984778
:100CD000FEE700BF00004020D02040004C0E402026
:100CE000101140204C0E402000ED00E000004000BC
:100CF0000A00402088ED00E0311F40005111400003
:100D00003B4B1B6B03F00303012B1DD083B1022B64
:100D100036D0374B1B6B03F07003702B5FD0344B16
:100D20001A6B3449C2F302120B68D3400B60704750
:100D3000314B5B6913F0800F14BF4FF400424FF446
:100D4000FA422C4B1A60E4E7294B1B6A13F0807FB0
:100D500003D02A4A274B1A60DBE7294A254B1A6041
:100D6000234B1B6A03F07003102B05D0202BD0D12E
:100D7000224A204B1A60CCE7224A1E4B1A60C8E771
:100D80001B4B1B6A13F0807F16D01C4A194B1A604C
:100D9000174B1B6B03F00303022BBAD1144A916A61
:100DA000926A1448C1F30A41036801FB0333D2B2CB
:100DB000B3FBF2F30360ACE7114A0E4B1A600C4B25
:100DC0001B6A03F07003102B05D0202BE0D10B4AD7
:100DD000084B1A60DCE70B4A064B1A60D8E7054A55
:100DE00013680949A1FB03135B081360704700BF38
:100DF00000060E400C00402010180E40001BB700EB
:100E000000093D0000127A00ABAAAAAA164B98422C
:100E100013D9164B984215D9154B984216D9154B34
:100E2000984217D9144B984218D9144B984294BF42
:100E3000134A144A144B1A6070474FF08062124BE9
:100E40001A607047114A104B1A607047104A0E4BD7
:100E50001A6070470F4A0C4B1A6070474FF004221B
:100E6000094B1A60704700BFBFF35E017FE7BD0208
:100E70003FDB1C04FFCE7B05BFC2DA067FB6390814
:100E80000005000400060004000C0E4000010004F0
:100E900000020004000300040122014B1A70704795
:100EA000E9104020034A1378B3FA83F35B09137007
:100EB000704700BFE81040202DE9F047B0F100086E
:100EC00030DD0F46CD17184BA1FB030103FB0511C5
:100ED00041F22C72002341F22B7400250019694164
:100EE000124CA04782460024114EDFF85090114D5D
:100EF0000AE03320A847012130460F4B98473320A2
:100F0000A8470134A0450DD001213046C847002F25
:100F1000EFD05046A84701213046074B984750462E
:100F2000A847EEE7BDE8F08700A3E111991B400058
:100F3000000E0E4001004020D5074000D9074000B8
:100F4000F8B50646244D40212846244CA0470121EF
:100F50002846A0473046224B984702460B461CA124
:100F6000D1E900011F4CA04706460F46002200238E
:100F70001D4CA047F0B9304639461C4B98471C4BD6
:100F8000A0FB034503FB01551A4A00231A48002120
:100F900000196941194CA0470746194CA0470E4E4D
:100FA00040213046174DA84701213046A847384612
:100FB000A047F8BD3320124CA047074E40213046D1
:100FC000104DA84701213046A8473320A047F8BD5F
:100FD0000000000080842E41000E0E40D507400026
:100FE0004915400069184000E51A4000C91B40003F
:100FF00000A3E111E0835A00DF835A00991B4000EF
:1010000001004020D9074000F8B5054600FB01F07B
:10101000084B98470022084B084CA047084B9847BC
:10102000061E06DD0024074F2846B8470134A642B5
:10103000FAD1F8BD4915400000408F4069184000C2
:10104000491B4000410F40002DE9F04182B02F4B79
:1010500098474FF400422E4B5A602E4B98472E4B28
:1010600098470A202D4CA047DFF8DC80002301229E
:101070004FF0405140462A4FB8471020A0470C205F
:10108000A047284E09234FF080524FF020513046A0
:10109000B847254D09234FF000424FF02051284614
:1010A000B847224B009340234FF080521021304626
:1010B0001F4FB8471F4B009340234FF000420C21B5
:1010C0002846B8474FF0805130461B4EB0474FF08E
:1010D00000412846B047194B4FF480321A604FF454
:1010E00080521A60802283F8102383F80C230A2090
:1010F000A047002400942346224640214046104D3C
:10110000A847104B1C7002B0BDE8F08125064000D6
:1011100050180E409506400075034000E10B40005A
:10112000CD08400000140E4000120E40990E400001
:10113000ED094000A50E40008F09400000E100E0ED
:10114000A5084000E8104020000E0E4000000000FE
:101150002DE9F04F85B0404B9847404B1B68404A03
:1011600092FBF3F30393DFF82CB15BE0002822DA63
:101170000028B8BF4042039B93FBF0F0D047002209
:10118000384BC847384B9847C8F8000013E0332065
:10119000364B984702340835354B1B68B4EB430F88
:1011A0003CDA6868334B18600028DFDD039B93FB53
:1011B000F0F0C8F80000D8F80000D04722A3D3E927
:1011C0000023C847284B984701462B4B53F824006F
:1011D0002A4B9847D8F80000D0471DA3D3E9002335
:1011E000C847CDE9000100220023254EB047002862
:1011F000CDD1DDE90001234B9847A0FB0B670BFB2A
:10120000017741F22C72002341F22B7000218019EA
:1012100079411D4EB047154B9847BBE7C8210120C7
:101220001A4B98471A4B1B78002BF7D0104B1B68B2
:101230005B00002BF2DD104D0024DFF85C80DFF84E
:101240005CA0DFF85C90ACE7CDCCCCCCCCCCEC3F58
:101250009A9999999999C93F491040001C0A4020D0
:1012600080A903000000F83F491B40000100402016
:10127000180A4020E01040201000402009104000D3
:10128000E51A4000C91B4000991B4000B90E400000
:10129000E810402000A3E111E4104020491540006F
:1012A0001516400081F0004102E000BF83F00043CA
:1012B00030B54FEA41044FEA430594EA050F08BFF1
:1012C00090EA020F1FBF54EA000C55EA020C7FEAB5
:1012D000645C7FEA655C00F0E2804FEA5454D4EB32
:1012E0005555B8BF6D420CDD2C4480EA020281EAFC
:1012F000030382EA000083EA010180EA020281EA34
:101300000303362D88BF30BD11F0004F4FEA013185
:101310004FF4801C4CEA113102D0404261EB410194
:1013200013F0004F4FEA03334CEA133302D052421A
:1013300063EB430394EA050F00F0A780A4F10104D6
:10134000D5F1200E0DDB02FA0EFC22FA05F2801810
:1013500041F1000103FA0EF2801843FA05F35941F6
:101360000EE0A5F120050EF1200E012A03FA0EFC75
:1013700028BF4CF0020C43FA05F3C01851EBE3719F
:1013800001F0004507D54FF0000EDCF1000C7EEBBC
:1013900000006EEB0101B1F5801F1BD3B1F5001FFA
:1013A0000CD349085FEA30004FEA3C0C04F1010419
:1013B0004FEA445212F5800F80F09A80BCF1004F42
:1013C00008BF5FEA500C50F1000041EB045141EAC4
:1013D000050130BD5FEA4C0C404141EB010111F4C5
:1013E000801FA4F10104E9D191F0000F04BF014670
:1013F0000020B1FA81F308BF2033A3F10B03B3F14E
:1014000020020CDA0C3208DD02F1140CC2F10C02DD
:1014100001FA0CF021FA02F10CE002F11402D8BF3B
:10142000C2F1200C01FA02F120FA0CFCDCBF41EA07
:101430000C019040E41AA2BF01EB0451294330BDD6
:101440006FEA04041F3C1CDA0C340EDC04F11404B3
:10145000C4F1200220FA04F001FA02F340EA03008A
:1014600021FA04F345EA030130BDC4F10C04C4F1D0
:10147000200220FA02F001FA04F340EA03002946B0
:1014800030BD21FA04F0294630BD94F0000F83F4FA
:10149000801306BF81F480110134013D4EE77FEADD
:1014A000645C18BF7FEA655C29D094EA050F08BF29
:1014B00090EA020F05D054EA000C04BF194610460A
:1014C00030BD91EA030F1EBF0021002030BD5FEA4E
:1014D000545C05D14000494128BF41F0004130BD76
:1014E00014F580043CBF01F5801130BD01F00045CA
:1014F00045F0FE4141F470014FF0000030BD7FEA3D
:10150000645C1ABF194610467FEA655C1CBF0B4637
:10151000024650EA013406BF52EA033591EA030F4E
:1015200041F4002130BD00BF90F0000F04BF002146
:10153000704730B54FF4806404F132044FF0000579
:101540004FF0000150E700BF90F0000F04BF0021F2
:10155000704730B54FF4806404F1320410F0004558
:1015600048BF40424FF000013EE700BF42004FEA53
:10157000E2014FEA31014FEA02701FBF12F07F43D0
:1015800093F07F4F81F06051704792F0000F14BFCD
:1015900093F07F4F704730B54FF4607401F0004511
:1015A00021F0004120E700BF50EA010208BF704768
:1015B00030B54FF000050AE050EA010208BF70475D
:1015C00030B511F0004502D5404261EB41014FF4C6
:1015D000806404F132045FEA915C3FF4DCAE4FF0CA
:1015E00003025FEADC0C18BF03325FEADC0C18BFB1
:1015F000033202EBDC02C2F1200300FA03FC20FA02
:1016000002F001FA03FE40EA0E0021FA02F114444E
:10161000C1E600BF70B54FF0FF0C4CF4E06C1CEA63
:1016200011541DBF1CEA135594EA0C0F95EA0C0FD8
:1016300000F0DEF82C4481EA030621EA4C5123EA4B
:101640004C5350EA013518BF52EA033541F480117A
:1016500043F4801338D0A0FB02CE4FF00005E1FB2D
:1016600002E506F00042E0FB03E54FF00006E1FB77
:1016700003569CF0000F18BF4EF0010EA4F1FF04BA
:10168000B6F5007F64F5407404D25FEA4E0E6D41FA
:1016900046EB060642EAC62141EA55514FEAC5200B
:1016A00040EA5E504FEACE2EB4F1FD0C88BFBCF587
:1016B000E06F1ED8BEF1004F08BF5FEA500E50F138
:1016C000000041EB045170BD06F0004646EA0101FE
:1016D00040EA020081EA0301B4EB5C04C2BFD4EB30
:1016E0000C0541EA045170BD41F480114FF0000E29
:1016F000013C00F3AB8014F1360FDEBF002001F097
:10170000004170BDC4F10004203C35DA0C341BDC10
:1017100004F11404C4F1200500FA05F320FA04F0E2
:1017200001FA05F240EA020001F0004221F0004116
:1017300010EBD37021FA04F642EB06015EEA430E89
:1017400008BF20EAD37070BDC4F10C04C4F12005B9
:1017500000FA04F320FA05F001FA04F240EA02006C
:1017600001F0004110EBD37041F100015EEA430E3D
:1017700008BF20EAD37070BDC4F1200500FA05F25D
:101780004EEA020E20FA04F301FA05F243EA0203DC
:1017900021FA04F001F0004121FA04F220EA0200EB
:1017A00000EBD3705EEA430E08BF20EAD37070BD31
:1017B00094F0000F0FD101F00046400041EB010111
:1017C00011F4801F08BF013CF7D041EA060195F0F3
:1017D000000F18BF704703F00046520043EB0303AD
:1017E00013F4801F08BF013DF7D043EA060370479A
:1017F00094EA0C0F0CEA135518BF95EA0C0F0CD0A5
:1018000050EA410618BF52EA4306D1D181EA0301EA
:1018100001F000414FF0000070BD50EA410606BFE4
:101820001046194652EA430619D094EA0C0F02D129
:1018300050EA013613D195EA0C0F05D152EA03366E
:101840001CBF104619460AD181EA030101F000418C
:1018500041F0FE4141F470014FF0000070BD41F0D5
:10186000FE4141F4780170BD70B54FF0FF0C4CF4AF
:10187000E06C1CEA11541DBF1CEA135594EA0C0FCE
:1018800095EA0C0F00F0A7F8A4EB050481EA030E1B
:1018900052EA03354FEA013100F088804FEA033302
:1018A0004FF0805545EA131343EA12634FEA0222D0
:1018B00045EA111545EA10654FEA00260EF0004191
:1018C0009D4208BF964244F1FD0404F5407402D2E3
:1018D0005B084FEA3202B61A65EB03055B084FEA74
:1018E00032024FF480104FF4002CB6EB020E75EB71
:1018F000030E22BFB61A754640EA0C005B084FEA99
:101900003202B6EB020E75EB030E22BFB61A754615
:1019100040EA5C005B084FEA3202B6EB020E75EB60
:10192000030E22BFB61A754640EA9C005B084FEAD8
:101930003202B6EB020E75EB030E22BFB61A7546E5
:1019400040EADC0055EA060E18D04FEA051545EAD4
:1019500016754FEA06164FEAC30343EA52734FEA7D
:10196000C2025FEA1C1CC0D111F4801F0BD141EAF6
:1019700000014FF000004FF0004CB6E711F4801F5B
:1019800004BF01430020B4F1FD0C88BFBCF5E06F3B
:101990003FF6AFAEB5EB030C04BFB6EB020C5FEA4B
:1019A000500C50F1000041EB045170BD0EF0004EA0
:1019B0004EEA113114EB5C04C2BFD4EB0C0541EAD2
:1019C000045170BD41F480114FF0000E013C90E6CF
:1019D00045EA060E8DE60CEA135594EA0C0F08BF93
:1019E00095EA0C0F3FF43BAF94EA0C0F0AD150EA92
:1019F00001347FF434AF95EA0C0F7FF425AF104625
:101A000019462CE795EA0C0F06D152EA03353FF44C
:101A1000FDAE1046194622E750EA410618BF52EAC9
:101A200043067FF4C5AE50EA41047FF40DAF52EA9D
:101A300043057FF4EBAE12E74FF0FF3C06E000BF3A
:101A40004FF0010C02E000BF4FF0010C4DF804CD47
:101A50004FEA410C7FEA6C5C4FEA430C18BF7FEA07
:101A60006C5C1BD001B050EA410C0CBF52EA430C35
:101A700091EA030F02BF90EA020F0020704710F1B5
:101A8000000F91EA030F58BF994208BF90422CBF44
:101A9000D8176FEAE37040F0010070474FEA410C3D
:101AA0007FEA6C5C02D150EA013C07D14FEA430C5B
:101AB0007FEA6C5CD6D152EA033CD3D05DF8040BCC
:101AC000704700BF8446104662468C4619466346FE
:101AD00000E000BF01B5FFF7B7FF002848BF10F1D5
:101AE000000F01BD4DF808EDFFF7F4FF0CBF01201A
:101AF00000205DF808FB00BF4DF808EDFFF7EAFF96
:101B000034BF012000205DF808FB00BF4DF808ED50
:101B1000FFF7E0FF94BF012000205DF808FB00BF45
:101B20004DF808EDFFF7CEFF94BF012000205DF8CF
:101B300008FB00BF4DF808EDFFF7C4FF34BF0120DC
:101B400000205DF808FB00BF4FEA410212F50012C9
:101B500015D211D56FF47873B3EB625212D94FEAF4
:101B6000C12343F0004343EA505311F0004F23FADE
:101B700002F018BF404270474FF00000704750EA33
:101B8000013005D111F0004008BF6FF000407047F0
:101B90004FF00000704700BF53B94AB9002908BF91
:101BA00000281CBF4FF0FF314FF0FF3000F09EB90E
:101BB000ADF1080C6DE904CE00F02AF8DDF804E080
:101BC000DDE9022304B07047D0B500220E4B064673
:101BD0000F46FFF71FFD00F08BF90446FFF7A4FC4A
:101BE00000220A4BFFF716FD02460B4630463946E7
:101BF000FFF75CFB00F07CF92346002242EA00027A
:101C000010461946D0BD00BF0000F03D0000F04175
:101C10002DE9F0478C460D460446089E002B51D115
:101C20008A4217466DD9B2FA82FEBEF1000F0BD080
:101C3000CEF1200C01FA0EF520FA0CFC02FA0EF798
:101C40004CEA050C00FA0EF44FEA174A250CBCFBCF
:101C5000FAF81FFA87F90AFB18CC45EA0C4508FB8D
:101C600009F3AB420AD9ED1908F1FF3280F0238164
:101C7000AB4240F22081A8F102083D44ED1AA4B223
:101C8000B5FBFAF00AFB105544EA054400FB09F9DC
:101C9000A14509D9E41900F1FF3380F00A81A1457B
:101CA00040F2078102383C44A4EB090440EA0840B2
:101CB0000021002E61D024FA0EF4002334607360FA
:101CC000BDE8F0878B4207D9002E54D0002186E86A
:101CD00021000846BDE8F087B3FA83F1002940F0FF
:101CE0008E80AB4202D3824200F2FA80841A65EB06
:101CF00003050120AC46002E3FD086E81010BDE859
:101D0000F08712B90127B7FBF2F7B7FA87FEBEF1E9
:101D1000000F34D1EB1B3A0C1FFA87FC0121B3FBF7
:101D2000F2F8250C02FB183345EA03450CFB08F3D7
:101D3000AB4207D9ED1908F1FF3002D2AB4200F2F5
:101D4000D1808046ED1AA3B2B5FBF2F002FB10552C
:101D500043EA05440CFB00FCA44507D9E41900F153
:101D6000FF3302D2A44500F2B8801846A4EB0C045D
:101D700040EA08409DE731463046BDE8F087CEF1A5
:101D8000200405FA0EF307FA0EF720FA04F83A0CCD
:101D900025FA04F448EA0308B4FBF2F14FEA1845C7
:101DA00002FB11441FFA87FC45EA044501FB0CF3D2
:101DB000AB4200FA0EF409D9ED1901F1FF3080F0C1
:101DC0008A80AB4240F2878002393D44EB1A1FFA09
:101DD00088F5B3FBF2F002FB103345EA034500FB44
:101DE0000CF3AB4207D9ED1900F1FF386FD2AB42CB
:101DF0006DD902383D44EB1A40EA01418FE7C1F149
:101E0000200722FA07F88B4005FA01F448EA030399
:101E100020FA07FE4FEA134CFD404EEA040EB5FBD4
:101E2000FCF94FEA1E440CFB19551FFA83F844EAEB
:101E3000054509FB08F4AC4202FA01F200FA01FA86
:101E400008D9ED1809F1FF3043D2AC4241D9A9F1CC
:101E500002091D442D1B1FFA8EFEB5FBFCF00CFB86
:101E600010554EEA054400FB08F8A04507D9E418D0
:101E700000F1FF3529D2A04527D902381C4440EA99
:101E80000940A4EB0804A0FB02894C45C6464D4618
:101E900015D312D056B1BAEB0E0364EB050404FA65
:101EA00007F7CB401F43CC40376074600021BDE88A
:101EB000F0871846F8E69046E0E6C245EAD2B8EB6D
:101EC000020E69EB03050138E4E72846D7E74046F0
:101ED00091E78146BEE7014678E702383C4445E792
:101EE000084608E7A8F102083D442BE7704700BF09
:101EF0004A0011D212F5001211D20DD56FF4787389
:101F0000B3EB62520ED44FEAC12343F0004343EADD
:101F1000505323FA02F070474FF00000704750EA28
:101F2000013002D14FF0FF3070474FF00000704792
:101F300070B50F4E0F4D761BB61018BF002405D09C
:101F4000013455F8043B9847A642F9D10A4E0B4D8F
:101F5000761B00F0A7F8B61018BF002406D0013495
:101F600055F8043B9847A642F9D170BD70BD00BF3B
:101F7000B0204000B0204000B8204000B020400019
:101F8000024B13B1024800F005B870470000000092
:101F9000A11F4000002301461A46184600F01EB853
:101FA00038B50A4C0A4D641BA4100AD004F18043D2
:101FB000013B05EB8305013C55F804399847002C9B
:101FC000F9D1BDE8384000F077B800BFC820400024
:101FD000C4204000704700BF704700BF2DE9F843A0
:101FE0002C4D0646286898460F469146FFF7F2FFAB
:101FF000294B1C68D4F84831002B3ED05A681F2A60
:102000001CDC02F1010E76B103EB82010124C1F860
:102010008890D3F8880194402043022EC3F88801A9
:10202000C1F8088123D00232C3F804E0286843F8DD
:102030002270FFF7D1FF0020BDE8F883174B0BB3E8
:102040004FF4C870AFF300800346D8B1D4F84821EC
:102050000260002141600A46C4F848014FF0010EB9
:10206000C0F88811C0F88C11002EDCD0CCE7D3F872
:102070008C110C43C3F88C41D5E704F5A673C4F862
:102080004831BBE72868FFF7A7FF4FF0FF30BDE8F6
:10209000F88300BF480E4020A02040000000000050
:1020A000200A4020F8B500BFF8BC08BC9E46704727
:1020B000811F400065014000F8B500BFF8BC08BCB6
:0820C0009E46704741014000FB
:0820C80048FBFF7F010000004E
:1020D000BFF35F8F0138FBD17047010000093D005D
:1020E00093020000080000009302000008000000B6
:1020F000000000000800000093020000080000003B
:1021000000000000080000000B02000008000000B2
:10211000930200000800000010030000040000000B
:10212000000000000400000088010000080000001A
:1021300000000000040000000B020000FCFFFFFF95
:1021400088010000080000000000000004000000FA
:102150004A010000FCFFFFFFB8010000040000007E
:10216000EE01000004000000D201000008000000A1
:10217000B80100000400000088010000F8FFFFFF24
:1021800093020000F8FFFFFF10030000F8FFFFFFBD
:102190007003000004000000BA0200000800000004
:1021A000100300000800000000000000080000000C
:1021B00093020000040000000B0200000800000071
:1021C0004B02000008000000EE010000FCFFFFFFD2
:1021D0000B020000FCFFFFFF880100000800000068
:1021E00000000000040000004A010000FCFFFFFFA7
:1021F000B801000004000000EE010000040000002F
:10220000D201000008000000B80100000400000036
:1022100088010000F8FFFFFF93020000F8FFFFFFB6
:1022200010030000F8FFFFFF70030000040000002F
:10223000BA020000080000001003000008000000BF
:1022400000000000080000009302000004000000ED
:102250000B020000080000004B0200000800000014
:10226000EE010000FCFFFFFF000000000400000082
:102270001003000008000000E40200000800000055
:10228000BA020000080000006E0200000400000016
:102290009302000008000000000000000800000099
:1022A0009F01000008000000B801000008000000C5
:1022B0000601000008000000000000000800000007
:1022C000B8010000080000000B0200000800000038
:1022D0004B020000080000000000000004000000A5
:1022E0006E02000004000000000000000800000072
:1022F0004B020000FCFFFFFF0B0200000200000089
:1023000000000000020000000000000004000000C7
:102310001003000008000000E402000008000000B4
:10232000BA020000080000006E0200000400000075
:1023300093020000080000000000000008000000F8
:102340009F01000008000000B80100000800000024
:102350000601000008000000000000000800000066
:10236000B8010000080000000B0200000800000097
:102370004B02000008000000000000000400000004
:102380006E020000040000000000000008000000D1
:102390004B020000FCFFFFFF0B02000002000000E8
:1023A00000000000020000000B0200000800000016
:1023B0000B020000040000000B02000008000000F7
:1023C00000000000080000000B02000008000000F0
:1023D0004B0200000400000093020000080000000F
:1023E0000B02000004000000B8010000080000001B
:1023F00088010000020000000B020000080000003D
:102400000B020000040000000B02000008000000A6
:1024100000000000080000000B020000080000009F
:102420004B020000080000009302000008000000BA
:1024300000000000010000000B0200000800000086
:102440000B020000040000000B0200000800000066
:1024500000000000080000000B020000080000005F
:102460004B0200000400000093020000080000007E
:102470000B02000004000000B8010000080000008A
:102480008801000002000000930200000800000024
:102490009302000008000000000000000800000097
:1024A0009302000008000000000000000800000087
:1024B0000B0200000800000093020000040000006E
:1024C00010030000040000000000000004000000F1
:1024D000880100000400000000000000040000006B
:1024E0000B020000FCFFFFFF880100000800000055
:1024F00000000000040000004A010000FCFFFFFF94
:10250000B801000004000000EE010000040000001B
:10251000D201000008000000B80100000400000023
:1025200088010000F8FFFFFF93020000F8FFFFFFA3
:1025300010030000F8FFFFFF70030000040000001C
:10254000BA020000080000001003000008000000AC
:1025500000000000080000009302000004000000DA
:102560000B020000080000004B0200000800000001
:10257000EE010000FCFFFFFF0B020000FCFFFFFF6D
:1025800088010000080000000000000004000000B6
:102590004A010000FCFFFFFFB8010000040000003A
:1025A000EE01000004000000D2010000080000005D
:1025B000B80100000400000088010000F8FFFFFFE0
:1025C00093020000F8FFFFFF10030000F8FFFFFF79
:1025D0007003000004000000BA02000008000000C0
:1025E00010030000080000000000000008000000C8
:1025F00093020000040000000B020000080000002D
:102600004B02000008000000EE010000FCFFFFFF8D
:1026100093020000080000000B020000040000000C
:102620008801000008000000000000000400000015
:102630009F01000004000000B80100000800000035
:10264000BA02000004000000BA0200000800000006
:10265000B8010000020000004B020000F8FFFFFF7D
:1026600070030000F8FFFFFF70030000F8FFFFFF9A
:1026700070030000F8FFFFFF10030000F8FFFFFFEA
:10268000BA020000F8FFFFFF9302000008000000FC
:102690000B02000004000000B80100000800000068
:1026A0008801000002000000930200000800000002
:1026B0000B02000004000000880100000800000078
:1026C00000000000040000009F0100000400000062
:1026D000B801000008000000BA0200000400000079
:1026E000BA02000008000000B8010000020000006B
:1026F000EE01000008000000BA0200000400000023
:10270000BA02000008000000BA020000F8FFFFFF54
:1027100093020000F8FFFFFF4B020000F8FFFFFFED
:102720000B020000080000004A0100000400000045
:102730004A0100000800000006010000020000003D
:1027400093020000080000000B02000004000000DB
:1027500088010000080000000000000004000000E4
:102760009F01000004000000B80100000800000004
:10277000BA02000004000000BA02000008000000D5
:10278000B8010000020000004B020000F8FFFFFF4C
:1027900070030000F8FFFFFF70030000F8FFFFFF69
:1027A00070030000F8FFFFFF10030000F8FFFFFFB9
:1027B000BA020000F8FFFFFF9302000008000000CB
:1027C0000B02000004000000B80100000800000037
:1027D00088010000020000009302000008000000D1
:1027E0000B02000004000000880100000800000047
:1027F00000000000040000009F0100000400000031
:10280000B801000008000000BA0200000400000047
:10281000BA02000008000000B80100000200000039
:10282000EE01000008000000BA02000004000000F1
:10283000BA02000008000000BA020000F8FFFFFF23
:1028400093020000F8FFFFFF4B020000F8FFFFFFBC
:102850000B020000080000004A0100000400000014
:102860004A0100000800000006010000020000000C
:102870000B020000080000000B0200000400000032
:102880000B0200000800000000000000080000002B
:102890000B020000080000004B02000008000000CE
:1028A000930200000800000000000000010000008A
:1028B0000B020000080000000B02000004000000F2
:1028C0000B020000080000000000000008000000EB
:1028D0000B020000080000004B0200000400000092
:1028E00093020000080000000B020000040000003A
:1028F000B80100000800000088010000020000008C
:10290000930200000800000093020000080000008D
:102910000000000008000000930200000800000012
:1029200000000000080000000B020000080000008A
:1029300093020000040000001003000004000000E7
:1029400000000000040000008801000004000000F6
:1029500000000000040000009302000008000000D6
:102960000B020000040000008801000008000000C5
:1029700000000000040000009F01000004000000AF
:10298000B801000008000000BA02000004000000C6
:10299000BA02000008000000B801000002000000B8
:1029A0004B020000F8FFFFFF70030000F8FFFFFF7D
:1029B00070030000F8FFFFFF70030000F8FFFFFF47
:1029C00010030000F8FFFFFFBA020000F8FFFFFF4E
:1029D00093020000080000000B0200000400000049
:1029E000B80100000800000088010000020000009B
:1029F00093020000080000000B0200000400000029
:102A00008801000008000000000000000400000031
:102A10009F01000004000000B80100000800000051
:102A2000BA02000004000000BA0200000800000022
:102A3000B801000002000000EE01000008000000E4
:102A4000BA02000004000000BA0200000800000002
:102A5000BA020000F8FFFFFF93020000F8FFFFFF3B
:102A60004B020000F8FFFFFF0B020000080000000F
:102A70004A010000040000004A01000008000000B4
:102A800006010000020000000B020000FCFFFFFF37
:102A900088010000FCFFFFFF4A0100000400000065
:102AA000B8010000F8FFFFFFEE010000F8FFFFFF94
:102AB000B8010000F8FFFFFF9F010000F8FFFFFFD3
:102AC000D2010000F8FFFFFF9F010000F8FFFFFFA9
:102AD0008801000008000000260100000800000036
:102AE0004A010000FEFFFFFF41010000FA00000064
:102AF000000000000C0D4020740D4020DC0D402033
:102B000000000000000000000000000000000000C5
:102B100000000000000000000000000000000000B5
:102B200000000000000000000000000000000000A5
:102B30000000000000000000000000000000000095
:102B40000000000000000000000000000000000085
:102B50000000000000000000000000000000000075
:102B60000000000000000000000000000000000065
:102B70000000000000000000000000000000000055
:102B80000000000000000000000000000000000045
:102B90000000000000000000010000000000000034
:102BA0000E33CDAB34126DE6ECDE05000B000000F9
:102BB0000000000000000000000000000000000015
:102BC0000000000000000000000000000000000005
:102BD00000000000000000000000000000000000F5
:102BE00000000000000000000000000000000000E5
:0C2F10000000000000000000EC10402059
:0400000500400C3972
:00000001FF
